:02000002D0002C
:1040000000400D00A4540D00000006000C00050146
:084010000401BD0B00000000DB
:0440180044520D0001
:10401C0009480A49884208B505D0094A824202D0AB
:10402C00121A01F0C7F80748074A0021121A01F0CA
:10403C00CFF8014808BD00BFBCE5032014540D00A7
:10404C0024E6032024E60320F0E7032070B5074E96
:10405C00074C00F0ADFEA41BA4080025A54200D11E
:10406C0070BD56F8043B98470135F7E7E8530D004F
:10407C000C540D0000F06EB808B500F039F8BDE82E
:10408C00084000F057BE00F0A7BA00F0ADBA0078B7
:10409C00B0FA80F0400970470123037070470000AC
:1040AC0010B1024B01221A70704700BF34E6032096
:1040BC0010B50446006808B100F096FA204610BD11
:1040CC0010B5094C2378BFF35B8FDB070AD420466D
:1040DC00FFF7DDFF30B10548012100F051FB204610
:1040EC00FFF7DAFF014810BD28E603202CE6032079
:1040FC001FB5154B1A78DAB1002408201C7001F09A
:10410C002FF88DF80C00FFF7DBFF0123009402AAB7
:10411C0003A900F0C3FB9DF80830312B0AD100F045
:10412C003DFD0A4900F0D3FE0121072000F0FFFFFE
:10413C0004B010BD302BFBD100F030FD044900F071
:10414C00C6FE2146F1E700BF34E6032058520D00AD
:10415C0061520D0008B50121072000F0D7FF0021A6
:10416C00082000F0D3FFFFF7ABFF0622012100F07F
:10417C0011FBFFF7A5FF0D4A012100F05DFBFFF7D6
:10418C009FFF012100F01CFBFFF79AFF002100F0BC
:10419C002AFBFFF795FF064900F093FB00F0FEFCAD
:1041AC00BDE808404FF4165100F0ECBC40420F0043
:1041BC00AD400D0038B50A4C0A4BA3600025032016
:1041CC002560A580A57100F0E3F90749074A204650
:1041DC0000F0D9FF29460120BDE8384000F0E0B9D5
:1041EC0038E603200000FFFFBD400D0024E603204D
:1041FC0008B5024B1B681B68019308BD4C020300F9
:10420C0008B5024B1B685B68019308BD4C020300A8
:10421C0008B5024B1B681B69019308BD4C020300D7
:10422C0008B5024B1B685B69019308BD4C02030087
:10423C0008B5024B1B689B69019308BD4C02030037
:10424C0008B5024B1B68DB69019308BD4C020300E7
:10425C0008B5024B1B681B6A019308BD4C02030096
:10426C0008B5024B1B681B6A019308BD28020300AA
:10427C0008B5024B1B685B6A019308BD280203005A
:10428C0008B5024B1B689B6A019308BD280203000A
:10429C0008B5024B1B68DB6A019308BD28020300BA
:1042AC0008B5024B1B681B6B019308BD2802030069
:1042BC0008B5024B1B685B6B019308BD2802030019
:1042CC0008B5024B1B681B6C019308BD2802030048
:1042DC0008B5024B1B681B68019308BD3C02030028
:1042EC0008B5024B1B68DB68019308BD3C02030058
:1042FC0008B5024B1B681B69019308BD3C02030007
:10430C0008B5024B1B685B69019308BD3C020300B6
:10431C0008B5024B1B689B69019308BD3C02030066
:10432C0008B5024B1B68DB69019308BD3C02030016
:10433C0008B5024B1B681B6A019308BD3C020300C5
:10434C0008B5024B1B689B6A019308BD3C02030035
:10435C0008B5024B1B685B69019308BD640203003E
:10436C0008B5024B1B685B6C019308BD4802030047
:10437C0008B5024B1B689B6C019308BD48020300F7
:10438C0008B5024B1B685B68019308BD180203005B
:10439C0008B5024B1B685B69019308BD180203004A
:1043AC0008B5024B1B689B68019308BD30020300E3
:1043BC0008B5024B1B68DB68019308BD3002030093
:1043CC0008B5024B1B681B69019308BD3002030042
:1043DC0008B5024B1B68DB69019308BD3002030072
:1043EC0008B5024B1B681B6A019308BD3002030021
:1043FC0008B5024B1B685B6A019308BD30020300D1
:10440C0008B5024B1B689B6A019308BD3002030080
:10441C0008B5024B1B68DB6A019308BD3002030030
:10442C0008B5024B1B681B6B019308BD30020300DF
:10443C0008B5024B1B689B6B019308BD300203004F
:10444C0008B5024B1B681B6C019308BD30020300BE
:10445C0008B5024B1B685B6C019308BD300203006E
:10446C0008B5024B1B689B68019308BD2C02030026
:10447C0008B5024B1B68DB68019308BD2C020300D6
:10448C0008B5024B1B681B69019308BD2C02030085
:10449C0008B5024B1B685B69019308BD2C02030035
:1044AC0008B5024B1B689B68019308BD68020300AA
:1044BC0008B5024B1B68DB68019308BD680203005A
:1044CC0008B5024B1B68DB6B019308BD440203006B
:1044DC0008B5024B1B685B68019308BD40020300E2
:1044EC0008B5024B1B689B68019308BD4002030092
:1044FC0008B5024B1B68DB68019308BD4002030042
:10450C0008B5024B1B681B69019308BD40020300F0
:10451C0008B5024B1B685B69019308BD40020300A0
:10452C0008B5024B1B689B69019308BD4002030050
:10453C0008B5024B1B68DB69019308BD4002030000
:10454C0008B5024B1B681B6A019308BD40020300AF
:10455C0008B5024B1B681B6B019308BD400203009E
:10456C0008B5024B1B685B6B019308BD400203004E
:10457C0008B5024B1B681B6C019308BD400203007D
:10458C0008B5024B1B685B6C019308BD400203002D
:10459C0008B5024B1B685B68019308BD2002030041
:1045AC0008B5024B1B68DB6A019308BD20020300AF
:1045BC0008B5034B1B68D3F88830019308BD000085
:1045CC002002030008B5034B1B68D3F89430019309
:1045DC0008BD00002002030008B5024B1B681B68D5
:1045EC00019308BD1C02030008B5024B1B685B68F5
:1045FC00019308BD1C02030008B5024B1B685B6CE1
:10460C00019308BD1C020300002340681A46FFF703
:10461C005FBF406800220221FFF76ABF002240689A
:10462C001146FFF75DBF002240681146FFF768BFD7
:10463C00002340681A461946FFF76ABF00234068FA
:10464C001A461946FFF76CBF40680021FFF790BF70
:10465C0040680021FFF794BF4068002281F00101FF
:10466C00FFF766BF40680022FFF772BF0022406868
:10467C001146FFF775BF002240681146FFF760BF77
:10468C002DE9F043002495B016460D46074600F080
:10469C00E9FA214618220EA8009400F099FD402357
:1046AC00CDE90C3421466B460CAA3046FFF700FFCF
:1046BC00044600284CD1024601216868FFF720FF10
:1046CC000221804622466868FFF71AFF009E814649
:1046DC002146002E3CD000293AD17368022B03D01E
:1046EC000A2B11D0F669F4E7B8F1000F0AD0716902
:1046FC0006A8043107AD00F0E3FA0FCD3C1D0FC442
:10470C002B6823704146EDE7B9F1000F01D1494602
:10471C00E8E77469102201A800F05AFD06238DF811
:10472C00143001AD04F108031834186859682A468E
:10473C0003C20833A3421546F7D101A906A807AD59
:10474C0000F09EFA0FCD3C1D0FC42B682370DEE7E2
:10475C000098FFF7A5FE384615B0BDE8F0830000C1
:10476C00024B034A1A6000225A60704744E6032049
:10477C0074520D000021FFF763BE0021FFF768BEE5
:10478C0010B5044608462170FFF722FE0023636033
:10479C00204610BD13B504460078CDE90021FFF783
:1047AC00E9FFDDE90021034640B92078FFF730FE30
:1047BC00207802B0BDE81040FFF7DFBF02B010BD9B
:1047CC0013B5044600780191FFF7D4FF019940B965
:1047DC002078FFF7E5FD207802B0BDE81040FFF728
:1047EC00CCBF02B010BD13B5044600780191FFF7A1
:1047FC00C1FF019940B92078FFF7DAFD207802B0AB
:10480C00BDE81040FFF7B9BF02B010BD400830B58D
:10481C001860002418688842E5B206D90134082CC7
:10482C0002D040081860F5E70725024B5B5D13705A
:10483C0030BD00BFA8520D002DE9F04188B0002317
:10484C000446007802930E461746FFF793FF054681
:10485C0000BB94F800800146142203A800F0B8FCB9
:10486C000B232A4603A94046ADF80C30FFF7C0FDD8
:10487C0004988DF8075002AB0DF1070207FB06F107
:10488C00FFF7C4FF20789DF80710FFF799FD2078FB
:10489C00FFF773FF029808B0BDE8F08130B587B020
:1048AC0004460A9D00950078FFF7AAFD3DB92078D3
:1048BC0002A9FFF7BDFD9DF81430DB07F7D407B054
:1048CC0030BD13B5044600780191FFF753FF0199F1
:1048DC00024640B92078FFF7A3FD207802B0BDE86E
:1048EC001040FFF74ABF02B010BD002240681146CD
:1048FC00FFF706BE002240681146FFF721BE0022DA
:10490C0040681146FFF72CBE40680022FFF720BE1E
:10491C004068002281F00101FFF70ABE00234068C5
:10492C001A461946FFF7FCBD002340681A46194683
:10493C00FFF7EEBD002240681146FFF7D1BD40687D
:10494C0000220221FFF7D4BD002340681A46FFF76E
:10495C00BFBD0000024B04225A60024A1A60704725
:10496C004CE60320B8520D007047F8B506461546C4
:10497C000C468F18BC4206D0336814F8011B9B6898
:10498C0030469847F6E72846F8BD007C0022FFF732
:10499C0067BC007C0021FFF76BBC007C0021FFF79B
:1049AC006FBC007C0021FFF773BC007C0021FFF77B
:1049BC0077BC10B51421044600F0EAFB204610BD6C
:1049CC0010B54FF47A73044608460021C4E901136C
:1049DC00034B236020741146FFF772FC204610BD78
:1049EC00F4520D0070474174704708B5007CFFF716
:1049FC00A7FC20EAE07008BD08B5007CFFF778FC46
:104A0C0020EAE07008BD08B5007CFFF781FC40EAA5
:104A1C00E07008BD08B5007CFFF772FC40EAE0705E
:104A2C0008BD007CFFF77CBC37B5457C04462DB136
:104A3C00207C03B0BDE83040FFF752BC007C0191F4
:104A4C00FFF77EFC00280199F2DC284603B030BD4C
:104A5C0010B51421044600F09BFB204610BD00004D
:104A6C0010B54FF0000C0446084611464FF47A720C
:104A7C00C4E901C2044A22600122207462741A46FD
:104A8C00FFF726FC204610BD1C530D0013B50E4C31
:104A9C002178BFF35B8F11F0010112D120460191F7
:104AAC00FFF7F5FA019960B1084A094B0948FFF77D
:104ABC00D7FF2046FFF7F0FA074A0849054800F0EF
:104ACC0062FB044802B010BD54E6032058E60320F4
:104ADC00DCE6032060E7032024E60320F1490D0007
:104AEC0041747047704708B50021007CFFF7A0FBAC
:104AFC0040EAE07008BD08B50121007CFFF798FB87
:104B0C0040EAE07008BD08B5007CFFF789FB20EA9D
:104B1C00E07008BD08B5007CFFF77AFB20EAE07076
:104B2C0008BD13B50446007C0191FFF779FB002802
:104B3C00019901DC607C20B1207CFFF781FB20EA2D
:104B4C00E07002B010BD007CFFF782BB10B51421E1
:104B5C00044600F01DFB204610BD000010B54FF4BC
:104B6C007A73044608460021C4E90113044B236000
:104B7C000123207463741146FFF73AFB204610BDE5
:104B8C004C530D00007C0022FFF73ABB10B51422E9
:104B9C000446002100F01CFB204610BD10B5104C43
:104BAC0088B003A8FFF7F2FF2178BFF35B8F11F0F9
:104BBC00010111D120460191FFF769FA019958B111
:104BCC0003AA0848FFF7CAFF2046FFF765FA064A12
:104BDC000649044800F0D7FA024808B010BD00BFDF
:104BEC0074E7032078E7032024E60320F14A0D0044
:104BFC00704710B51821044600F0CAFA204610BDC3
:104C0C00F0B5037D062B8DB00E4600F104074FF076
:104C1C00000412D000F1080515F8011D0A223046D7
:104C2C0000F05FF9AF42044419D0002CF4D02E21CF
:104C3C00304600F03DF90444EEE72F236A4639462E
:104C4C000A208DF80040FFF783FB684600F0ECFA71
:104C5C0033680246DB68694630469847044620466E
:104C6C000DB0F0BD10B5054B0446112240F8043BC5
:104C7C00002100F0ADFA204610BD00BF7C530D00A2
:104C8C000346074A10B543F8042B01F1100251F802
:104C9C00044B43F8044B9142F9D10A781A7010BDB9
:104CAC007C530D0010B59DF8084044EA032343EAF9
:104CBC00024242EA016104234160037510BD000009
:104CCC0013B5054B0360CB7800938B784A78097841
:104CDC00FFF7E8FF02B010BD7C530D0010B58368E0
:104CEC00044613B1032201469847204610BD00002C
:104CFC00014B1860704700BFC0E5032008B50B4B93
:104D0C0043B1FFF74BFF03681B699847002801DD8F
:104D1C00AFF30080064B43B1FFF7B8FE03681B6985
:104D2C009847002801DDAFF3008008BD00000000AB
:104D3C000000000008B5FFF7E1FFFFF729FB014B6E
:104D4C00186008BDE0E703200248034A0349121A21
:104D5C0000F030BA00F4032004F4032010540D00CA
:104D6C0007B5002300931A466FF07701FFF72AFC72
:104D7C0003B05DF804FB000007B543880A2B08D08C
:104D8C00502B0BD1094B1B684BB103B05DF804EBF6
:104D9C001847FFF7E5FF03B05DF804FB0023009311
:104DAC001A466FF07701FFF70DFCF4E790E703204C
:104DBC0038B5124C1248134D0021FFF71DFC236827
:104DCC00AB42114B0CBF012200221A7002D0FFF72C
:104DDC00BBFF2560FFF7D4FA044600F001FA0B4B39
:104DEC0013B12046AFF3008000210848FFF768FBA1
:104DFC00BDE8384006480021FFF7DABB00F4032079
:104E0C00FD4C0D001E1C279A8CE7032000000000AF
:104E1C00854D0D0010B50446FFF760FF204610BD10
:104E2C000348044A04490023836000F0ACB900BF76
:104E3C0094E7032024E60320214E0D00024B1A6850
:104E4C00024B1A60704700BFBCE50320A4E70320A7
:104E5C00014B024A1A607047A8E70320A4530D00C7
:104E6C00F8B506460D468F180024BD420CD03368A9
:104E7C0015F8011B9B6830469847031E01DB1C4448
:104E8C00F3E7002C08BF1C462046F8BD13B50446BA
:104E9C00084659B1019100F0C7F923680199DB6804
:104EAC000246204602B0BDE81040184702B010BDC3
:104EBC0003689B68184738B50D210546FFF7F8FFC6
:104ECC000A2104462846FFF7F3FF204438BD38B5C5
:104EDC000546FFF7DBFF04462846FFF7ECFF2044AE
:104EEC0038BD30B58BB000238DF82430012A98BF23
:104EFC000A2209AC0D46B1FBF2F101FB125303F08F
:104F0C00FF03092B94BF30333733DBB2AA4204F8CA
:104F1C00013DEFD92146FFF7B9FF0BB030BD10B5FD
:104F2C000446006808B1FFF723FA204610BD0000C4
:104F3C0010B5064C002320462360FFF711FA2046DB
:104F4C00034A0449BDE8104000F01DB9ACE703204A
:104F5C0024E603202B4F0D0010B5094B094C0222FF
:104F6C0000201A60084B2060A080A071A360FFF79E
:104F7C000FFB2046054A0649BDE8104000F003B976
:104F8C00BCE70320B0E703200000FFFF24E603206A
:104F9C00BD400D00002240681146FFF7D1BA002237
:104FAC0040681146FFF7DCBA40680022FFF7D0BA20
:104FBC004068002281F00101FFF7BABA0023406873
:104FCC001A461946FFF7ACBA002340681A46194630
:104FDC00FFF79EBA002240681146FFF791BA0022F3
:104FEC0040681146FFF77CBA406800220221FFF7A7
:104FFC007FBA002340681A46FFF76ABA024B0322B5
:10500C005A60024A1A607047C0E70320B0530D0083
:10501C0038B5002320254380142304460380856083
:10502C0005610649284600F0B5F804496060284639
:10503C0000F0B0F8E060204638BD00BFE4530D002E
:10504C0030B50F4D2978BFF35B8F11F0010487B099
:10505C0013D12846FFF71BF878B101A8FFF7D8FF4A
:10506C0001AA21460748FFF7ABFC2846FFF714F8C6
:10507C00054A0649034800F086F8024807B030BDDF
:10508C00C8E70320CCE7032024E6032075490D0074
:10509C00232813B502D9002002B010BDA0F10B03D8
:1050AC00022B1AD8174C2178BFF35B8F11F001013A
:1050BC000BD120460191FEF7EAFF019928B1124865
:1050CC00FFF75EFB2046FEF7E7FF0F4B1878FFF764
:1050DC0087F90028DFD10120DEE7012809D8FFF786
:1050EC00AFFF0021007CFFF7E3F880F00100C0B2B5
:1050FC00D2E709380128EED8FFF7C8FC007CFFF78F
:10510C0017F9F2E7E4E70320E8E70320232838B592
:10511C0004460D460AD8FF2908D0FFF7B9FF28B17D
:10512C0029462046BDE83840FFF79AB938BD38B556
:10513C0004460D46FFF79CF9FF2810D0062804D82A
:10514C004D2323FA00F0C30709D42046FFF7A0FF34
:10515C0028B129462046BDE83840FFF791B938BD43
:10516C0010B50446FFF784F9031FDBB2012B08D9F5
:10517C002046FFF78DFF20B12046BDE81040FFF719
:10518C0087B9002010BD0B460146184600F004B844
:10519C00FEF77BBFFEF777BF10B5054C13462CB15D
:1051AC000A4601460220AFF3008010BD2046FCE702
:1051BC00000000000A44914200F1FF3300D1704717
:1051CC0010B511F8014B03F8014F9142F9D110BD04
:1051DC0002440346934200D1704703F8011BF9E7E0
:1051EC0038B50D4B1D68AB6B04467BB91820FFF727
:1051FC00F3F90A4A0A4BA863C0E90023094B836000
:10520C000B23838101220023C0E90423AB6B002212
:10521C001C615A6138BD00BFC0E503200E33CDAB15
:10522C0034126DE6ECDE0500034613F8012B002A60
:10523C00FBD1181A013870471D400D0059400D0064
:10524C0081400D0085400D00000000004C454420BD
:10525C0048494748004C4544204C4F57000000003B
:10526C00000000000000000015460D001F460D0058
:10527C0029460D0033460D003D460D0049460D00F4
:10528C0055460D005D460D0065460D0071460D003E
:10529C0079460D0083460D008D460D000008101850
:1052AC0020283038000000000000000055490D0097
:1052BC004B490D0041490D00F7480D0035490D00D3
:1052CC0029490D0055460D005D460D001D490D0088
:1052DC0015490D000B490D0001490D008D460D00BF
:1052EC00000000000000000075490D00BF490D00D2
:1052FC0097490D0077490D009F490D00A7490D00F6
:10530C00AF490D00B7490D0000000000000000007F
:10531C00F1490D005D4A0D00354A0D006D4E0D0032
:10532C00054A0D00214A0D00134A0D002F4A0D00AD
:10533C00F3490D00F7490D000000000000000000CB
:10534C00F14A0D00594B0D002F4B0D006D4E0D0009
:10535C00214B0D00F34A0D00034B0D00534B0D0078
:10536C00134B0D00ED4A0D00000000000000000082
:10537C000D4C0D00FD4B0D00FF4B0D0025592D253F
:10538C006D2D25645425483A254D3A2553257A0030
:10539C0061736374696D65006170700000000000DA
:1053AC0000000000FF4F0D00F54F0D00EB4F0D00FE
:1053BC00E14F0D00D54F0D00C94F0D0055460D00A6
:1053CC005D460D00BD4F0D00B54F0D00AB4F0D00F0
:1053DC00A14F0D008D460D0000000000C1410D00D5
:1053EC006D470D0061490D002D4E0D00494E0D000D
:1053FC005D4E0D003D4F0D00654F0D0009500D0029
:04540C00000000009C
:045410000000000098
:105414009C530D00C4E503200000000000000000C0
:105424000000000000000000000000000000000078
:105434000000000000000000000000000000000068
:105444000000000000000000000000000000000058
:105454000000000000000000000000000000000048
:105464000000000000000000000000000000000038
:08547400000000000000000030
:10547C00FFFFFFFF00000102030405060708090AED
:10548C000B0C0D0E0F101112131415161718191AE8
:08549C001B1C1D1E1F2028002F
:0454A40078563412F0
:04000003D000401CCD
:00000001FF
