:02000002D0002C
:1040000000400D0024550D00000006000C000501C5
:084010000401BD0B00000000DB
:04401800D4520D0071
:10401C0009480A49884208B505D0094A824202D0AB
:10402C00121A01F00FF90748074A0021121A01F081
:10403C0017F9014808BD00BFBCE5032094540D00DE
:10404C0024E6032024E60320F0E7032070B5074E96
:10405C00074C00F0CFFEA41BA4080025A54200D1FC
:10406C0070BD56F8043B98470135F7E768540D00CE
:10407C008C540D0000F04AB808B500F077F8BDE894
:10408C00084000F079BE00F0C1BA00F0C7BA007861
:10409C00B0FA80F0400970470123037070470000AC
:1040AC0010B1024B01221A70704700BF34E6032096
:1040BC0010B50446006808B100F0B0FA204610BDF7
:1040CC000EB403B503AB012153F8042B019300F09C
:1040DC003EFF02B05DF804EB03B0704710B5094C1D
:1040EC002378BFF35B8FDB070AD42046FFF7CFFFA3
:1040FC0030B10548012100F065FB2046FFF7CCFFED
:10410C00014810BD28E603202CE6032008B5012148
:10411C00072001F043F80021082001F03FF8FFF7D9
:10412C00DDFF0622012100F057FBFFF7D7FF0D4AF8
:10413C00012100F0A3FBFFF7D1FF012100F062FB8E
:10414C00FFF7CCFF002100F070FBFFF7C7FF06491B
:10415C0000F0D9FB00F044FDBDE808404FF41651C7
:10416C0000F032BD40420F00AD400D001FB51C4B9E
:10417C001A7892B300241C7000F032FD9DF80820D0
:10418C001849FFF79DFFFFF7A9FF0123009402AA2E
:10419C0003A900F0A5FB9DF80830312B03D10121B8
:1041AC00072001F00CF89DF80830302B03D10021CA
:1041BC00072001F004F89DF808303F2B0DD10820A2
:1041CC0001F016F88DF80C00FFF788FF0023009320
:1041DC0002AA012303A900F083FB04B010BD00BFA9
:1041EC0034E60320E8520D0038B50A4C0A4BA360A4
:1041FC00002503202560A580A57100F0E3F907498F
:10420C00074A204601F007F829460120BDE838404E
:10421C0000F0E0B938E603200000FFFFBD400D00C0
:10422C0024E6032008B5024B1B681B68019308BDEC
:10423C004C02030008B5024B1B685B68019308BD78
:10424C004C02030008B5024B1B681B69019308BDA7
:10425C004C02030008B5024B1B685B69019308BD57
:10426C004C02030008B5024B1B689B69019308BD07
:10427C004C02030008B5024B1B68DB69019308BDB7
:10428C004C02030008B5024B1B681B6A019308BD66
:10429C004C02030008B5024B1B681B6A019308BD56
:1042AC002802030008B5024B1B685B6A019308BD2A
:1042BC002802030008B5024B1B689B6A019308BDDA
:1042CC002802030008B5024B1B68DB6A019308BD8A
:1042DC002802030008B5024B1B681B6B019308BD39
:1042EC002802030008B5024B1B685B6B019308BDE9
:1042FC002802030008B5024B1B681B6C019308BD18
:10430C002802030008B5024B1B681B68019308BD0B
:10431C003C02030008B5024B1B68DB68019308BD27
:10432C003C02030008B5024B1B681B69019308BDD6
:10433C003C02030008B5024B1B685B69019308BD86
:10434C003C02030008B5024B1B689B69019308BD36
:10435C003C02030008B5024B1B68DB69019308BDE6
:10436C003C02030008B5024B1B681B6A019308BD95
:10437C003C02030008B5024B1B689B6A019308BD05
:10438C003C02030008B5024B1B685B69019308BD36
:10439C006402030008B5024B1B685B6C019308BDFB
:1043AC004802030008B5024B1B689B6C019308BDC7
:1043BC004802030008B5024B1B685B68019308BDFB
:1043CC001802030008B5024B1B685B69019308BD1A
:1043DC001802030008B5024B1B689B68019308BDCB
:1043EC003002030008B5024B1B68DB68019308BD63
:1043FC003002030008B5024B1B681B69019308BD12
:10440C003002030008B5024B1B68DB69019308BD41
:10441C003002030008B5024B1B681B6A019308BDF0
:10442C003002030008B5024B1B685B6A019308BDA0
:10443C003002030008B5024B1B689B6A019308BD50
:10444C003002030008B5024B1B68DB6A019308BD00
:10445C003002030008B5024B1B681B6B019308BDAF
:10446C003002030008B5024B1B689B6B019308BD1F
:10447C003002030008B5024B1B681B6C019308BD8E
:10448C003002030008B5024B1B685B6C019308BD3E
:10449C003002030008B5024B1B689B68019308BDF2
:1044AC002C02030008B5024B1B68DB68019308BDA6
:1044BC002C02030008B5024B1B681B69019308BD55
:1044CC002C02030008B5024B1B685B69019308BD05
:1044DC002C02030008B5024B1B689B68019308BDB6
:1044EC006802030008B5024B1B68DB68019308BD2A
:1044FC006802030008B5024B1B68DB6B019308BD17
:10450C004402030008B5024B1B685B68019308BDAD
:10451C004002030008B5024B1B689B68019308BD61
:10452C004002030008B5024B1B68DB68019308BD11
:10453C004002030008B5024B1B681B69019308BDC0
:10454C004002030008B5024B1B685B69019308BD70
:10455C004002030008B5024B1B689B69019308BD20
:10456C004002030008B5024B1B68DB69019308BDD0
:10457C004002030008B5024B1B681B6A019308BD7F
:10458C004002030008B5024B1B681B6B019308BD6E
:10459C004002030008B5024B1B685B6B019308BD1E
:1045AC004002030008B5024B1B681B6C019308BD4D
:1045BC004002030008B5024B1B685B6C019308BDFD
:1045CC004002030008B5024B1B685B68019308BDF1
:1045DC002002030008B5024B1B68DB6A019308BD7F
:1045EC002002030008B5034B1B68D3F888300193F5
:1045FC0008BD00002002030008B5034B1B68D3F86C
:10460C009430019308BD00002002030008B5024B52
:10461C001B681B68019308BD1C02030008B5024B04
:10462C001B685B68019308BD1C02030008B5024BB4
:10463C001B685B6A019308BD1C02030008B5024BA2
:10464C001B685B6C019308BD1C02030000234068CF
:10465C001A46FFF757BF406800220221FFF762BFDE
:10466C00002240681146FFF755BF002240681146F2
:10467C00FFF760BF002340681A461946FFF762BF78
:10468C00002340681A461946FFF764BF40680021B2
:10469C00FFF788BF40680021FFF78CBF40680022FD
:1046AC0081F00101FFF75EBF40680022FFF76ABF8F
:1046BC00002240681146FFF76DBF0022406811468A
:1046CC00FFF758BF2DE9F043002495B016460D4670
:1046DC00074600F0E9FA214618220EA8009400F0D3
:1046EC00BFFD4023CDE90C3421466B460CAA304665
:1046FC00FFF7F8FE044600284CD1024601216868F9
:10470C00FFF718FF0221804622466868FFF712FF68
:10471C00009E81462146002E3CD000293AD1736878
:10472C00022B03D00A2B11D0F669F4E7B8F1000F75
:10473C000AD0716906A8043107AD00F0E3FA0FCD79
:10474C003C1D0FC42B6823704146EDE7B9F1000FF7
:10475C0001D14946E8E77469102201A800F080FDF8
:10476C0006238DF8143001AD04F1080318341868D1
:10477C0059682A4603C20833A3421546F7D101A94A
:10478C0006A807AD00F09EFA0FCD3C1D0FC42B6898
:10479C002370DEE70098FFF79DFE384615B0BDE8A4
:1047AC00F0830000024B034A1A6000225A607047E3
:1047BC0044E60320F4520D000021FFF75BBE0021FC
:1047CC00FFF760BE10B5044608462170FFF71AFECD
:1047DC0000236360204610BD13B504460078CDE974
:1047EC000021FFF7E9FFDDE90021034640B92078FD
:1047FC00FFF728FE207802B0BDE81040FFF7DFBFBE
:10480C0002B010BD13B5044600780191FFF7D4FF38
:10481C00019940B92078FFF7DDFD207802B0BDE8A2
:10482C001040FFF7CCBF02B010BD13B504460078A2
:10483C000191FFF7C1FF019940B92078FFF7D2FD34
:10484C00207802B0BDE81040FFF7B9BF02B010BD30
:10485C00400830B51860002418688842E5B206D9C3
:10486C000134082C02D040081860F5E70725024BEC
:10487C005B5D137030BD00BF28530D002DE9F04176
:10488C0088B000230446007802930E461746FFF7C3
:10489C0093FF054600BB94F800800146142203A840
:1048AC0000F0DEFC0B232A4603A94046ADF80C3081
:1048BC00FFF7B8FD04988DF8075002AB0DF1070215
:1048CC0007FB06F1FFF7C4FF20789DF80710FFF7F0
:1048DC0091FD2078FFF773FF029808B0BDE8F081D6
:1048EC0030B587B004460A9D00950078FFF7A2FD0D
:1048FC003DB9207802A9FFF7B5FD9DF81430DB0710
:10490C00F7D407B030BD13B5044600780191FFF71A
:10491C0053FF0199024640B92078FFF79BFD2078A0
:10492C0002B0BDE81040FFF74ABF02B010BD002234
:10493C0040681146FFF7FEBD002240681146FFF7A4
:10494C0019BE002240681146FFF724BE40680022C1
:10495C00FFF718BE4068002281F00101FFF702BE8C
:10496C00002340681A461946FFF7F4BD002340683F
:10497C001A461946FFF7E6BD002240681146FFF7BC
:10498C00C9BD406800220221FFF7CCBD002340685E
:10499C001A46FFF7B7BD0000024B04225A60024AC8
:1049AC001A6070474CE6032038530D007047F8B579
:1049BC00064615460C468F18BC4206D0336814F8D0
:1049CC00011B9B6830469847F6E72846F8BD007CEB
:1049DC000022FFF75FBC007C0021FFF763BC007C6A
:1049EC000021FFF767BC007C0021FFF76BBC007C4B
:1049FC000021FFF76FBC10B51421044600F010FC29
:104A0C00204610BD10B54FF47A73044608460021B9
:104A1C00C4E90113034B236020741146FFF76AFCB1
:104A2C00204610BD74530D0070474174704708B593
:104A3C00007CFFF79FFC20EAE07008BD08B5007C05
:104A4C00FFF770FC20EAE07008BD08B5007CFFF7AA
:104A5C0079FC40EAE07008BD08B5007CFFF76AFC01
:104A6C0040EAE07008BD007CFFF774BC37B5457CAC
:104A7C0004462DB1207C03B0BDE83040FFF74ABCA2
:104A8C00007C0191FFF776FC00280199F2DC2846A6
:104A9C0003B030BD10B51421044600F0C1FB204614
:104AAC0010BD000010B54FF0000C0446084611462E
:104ABC004FF47A72C4E901C2044A226001222074C4
:104ACC0062741A46FFF71EFC204610BD9C530D0065
:104ADC0013B50E4C2178BFF35B8F11F0010112D18D
:104AEC0020460191FFF7D3FA019960B1084A094BAE
:104AFC000948FFF7D7FF2046FFF7CEFA074A0849C7
:104B0C00054800F088FB044802B010BD54E60320B1
:104B1C0058E60320DCE6032060E7032024E60320AC
:104B2C00354A0D0041747047704708B50021007C70
:104B3C00FFF798FB40EAE07008BD08B50121007C46
:104B4C00FFF790FB40EAE07008BD08B5007CFFF76A
:104B5C0081FB20EAE07008BD08B5007CFFF772FB12
:104B6C0020EAE07008BD13B50446007C0191FFF704
:104B7C0071FB0028019901DC607C20B1207CFFF7DF
:104B8C0079FB20EAE07002B010BD007CFFF77ABB25
:104B9C0010B51421044600F043FB204610BD000064
:104BAC0010B54FF47A73044608460021C4E901138A
:104BBC00044B23600123207463741146FFF732FB0E
:104BCC00204610BDCC530D00007C0022FFF732BBF9
:104BDC0010B514220446002100F042FB204610BD03
:104BEC0010B5104C88B003A8FFF7F2FF2178BFF383
:104BFC005B8F11F0010111D120460191FFF747FAAB
:104C0C00019958B103AA0848FFF7CAFF2046FFF7DD
:104C1C0043FA064A0649044800F0FDFA024808B077
:104C2C0010BD00BF74E7032078E7032024E60320BF
:104C3C00354B0D00704710B51821044600F0F0FA02
:104C4C00204610BDF0B5037D062B8DB00E4600F14D
:104C5C0004074FF0000412D000F1080515F8011DEF
:104C6C000A22304600F055F9AF42044419D0002C0A
:104C7C00F4D02E21304600F03DF90444EEE72F230A
:104C8C006A4639460A208DF80040FFF77BFB6846E0
:104C9C0000F012FB33680246DB68694630469847E1
:104CAC00044620460DB0F0BD10B5054B044611224C
:104CBC0040F8043B002100F0D3FA204610BD00BFA1
:104CCC00FC530D000346074A10B543F8042B01F1C1
:104CDC00100251F8044B43F8044B9142F9D10A7875
:104CEC001A7010BDFC530D0010B59DF8084044EA35
:104CFC00032343EA024242EA016104234160037543
:104D0C0010BD000013B5054B0360CB7800938B7876
:104D1C004A780978FFF7E8FF02B010BDFC530D008C
:104D2C0010B58368044613B1032201469847204608
:104D3C0010BD0000014B1860704700BFC0E5032098
:104D4C0008B50B4B43B1FFF74BFF03681B69984742
:104D5C00002801DDAFF30080064B43B1FFF7B8FE2E
:104D6C0003681B699847002801DDAFF3008008BD7C
:104D7C00000000000000000008B5FFF7E1FFFFF79E
:104D8C0021FB014B186008BDE0E703200248034AF1
:104D9C000349121A00F056BA00F4032004F403205D
:104DAC0090540D0007B5002300931A466FF077015D
:104DBC00FFF722FC03B05DF804FB000007B5438845
:104DCC000A2B08D0502B0BD1094B1B684BB103B0ED
:104DDC005DF804EB1847FFF7E5FF03B05DF804FB43
:104DEC00002300931A466FF07701FFF705FCF4E7F8
:104DFC0090E7032038B5124C1248134D0021FFF7F1
:104E0C001DFC2368AB42114B0CBF012200221A700F
:104E1C0002D0FFF7BBFF2560FFF7CCFA044600F089
:104E2C0027FA0B4B13B12046AFF300800021084842
:104E3C00FFF760FBBDE8384006480021FFF7D2BB06
:104E4C0000F40320414D0D001E1C279A8CE7032013
:104E5C0000000000C94D0D0010B50446FFF760FFBF
:104E6C00204610BD0348044A04490023836000F027
:104E7C00D2B900BF94E7032024E60320654E0D0051
:104E8C00024B1A68024B1A60704700BFBCE5032046
:104E9C00A4E70320014B024A1A607047A8E70320DD
:104EAC0024540D00F8B506460D468F180024BD425B
:104EBC000CD0336815F8011B9B6830469847031ECD
:104ECC0001DB1C44F3E7002C08BF1C462046F8BD50
:104EDC0013B50446084659B1019100F0EDF9236869
:104EEC000199DB680246204602B0BDE81040184725
:104EFC0002B010BD03689B68184738B50D210546F4
:104F0C00FFF7F8FF0A2104462846FFF7F3FF204479
:104F1C0038BD30B58BB000238DF82430012A98BFF2
:104F2C000A2209AC0D46B1FBF2F101FB125303F05E
:104F3C00FF03092B94BF30333733DBB2AA4204F89A
:104F4C00013DEFD92146FFF7C3FF0BB030BD2DE972
:104F5C00F04186B000AF05460E46381D14211446AC
:104F6C003B60FFF763FB13280ED8391D2846FFF76B
:104F7C00AFFF04461EB12846FFF7BFFF044420468E
:104F8C001837BD46BDE8F08100F1080323F0070394
:104F9C00E846ADEB030D2246411C3B686846FFF723
:104FAC0045FB69462846FFF793FF0446C546E1E7F3
:104FBC0010B50446006808B1FFF7F4F9204610BD9F
:104FCC0010B5064C002320462360FFF7E3F920467A
:104FDC00034A0449BDE8104000F01DB9ACE70320BA
:104FEC0024E60320BD4F0D0010B5094B094C0222DD
:104FFC0000201A60084B2060A080A071A360FFF70E
:10500C00E1FA2046054A0649BDE8104000F003B914
:10501C00BCE70320B0E703200000FFFF24E60320D9
:10502C00BD400D00002240681146FFF7A3BA0022D4
:10503C0040681146FFF7AEBA40680022FFF7A2BAEB
:10504C004068002281F00101FFF78CBA0023406810
:10505C001A461946FFF77EBA002340681A461946CD
:10506C00FFF770BA002240681146FFF763BA0022BE
:10507C0040681146FFF74EBA406800220221FFF744
:10508C0051BA002340681A46FFF73CBA024B032280
:10509C005A60024A1A607047C0E7032030540D0072
:1050AC0038B50023202543801423044603808560F3
:1050BC0005610649284600F0B5F8044960602846A9
:1050CC0000F0B0F8E060204638BD00BF64540D001D
:1050DC0030B50F4D2978BFF35B8F11F0010487B009
:1050EC0013D12846FEF7D3FF78B101A8FFF7D8FFFC
:1050FC0001AA21460748FFF785FC2846FEF7CCFF9E
:10510C00054A0649034800F086F8024807B030BD4E
:10511C00C8E70320CCE7032024E60320B9490D009F
:10512C00232813B502D9002002B010BDA0F10B0347
:10513C00022B1AD8174C2178BFF35B8F11F00101A9
:10514C000BD120460191FEF7A2FF019928B112481C
:10515C00FFF738FB2046FEF79FFF0F4B1878FFF741
:10516C0059F90028DFD10120DEE7012809D8FFF723
:10517C00AFFF0021007CFFF7B5F880F00100C0B252
:10518C00D2E709380128EED8FFF7A2FC007CFFF724
:10519C00E9F8F2E7E4E70320E8E70320232838B531
:1051AC0004460D460AD8FF2908D0FFF7B9FF28B1ED
:1051BC0029462046BDE83840FFF76CB938BD38B5F4
:1051CC0004460D46FFF76EF9FF2810D0062804D8C8
:1051DC004D2323FA00F0C30709D42046FFF7A0FFA4
:1051EC0028B129462046BDE83840FFF763B938BDE1
:1051FC0010B50446FFF756F9031FDBB2012B08D993
:10520C002046FFF78DFF20B12046BDE81040FFF788
:10521C0059B9002010BD0B460146184600F004B8E1
:10522C00FEF733BFFEF72FBF10B5054C13462CB15C
:10523C000A4601460220AFF3008010BD2046FCE771
:10524C00000000000A44914200F1FF3300D1704786
:10525C0010B511F8014B03F8014F9142F9D110BD73
:10526C0002440346934200D1704703F8011BF9E74F
:10527C0038B50D4B1D68AB6B04467BB91820FFF796
:10528C00C5F90A4A0A4BA863C0E90023094B83609D
:10529C000B23838101220023C0E90423AB6B002282
:1052AC001C615A6138BD00BFC0E503200E33CDAB85
:1052BC0034126DE6ECDE0500034613F8012B002AD0
:1052CC00FBD1181A013870471D400D0059400D00D4
:1052DC0081400D0085400D00000000002564000099
:1052EC00000000000000000059460D0063460D0050
:1052FC006D460D0077460D0081460D008D460D0064
:10530C0099460D00A1460D00A9460D00B5460D00AD
:10531C00BD460D00C7460D00D1460D000008101803
:10532C0020283038000000000000000099490D00D2
:10533C008F490D0085490D003B490D0079490D0041
:10534C006D490D0099460D00A1460D0061490D00F7
:10535C0059490D004F490D0045490D00D1460D002E
:10536C000000000000000000B9490D00034A0D00C8
:10537C00DB490D00BB490D00E3490D00EB490D0065
:10538C00F3490D00FB490D00000000000000000077
:10539C00354A0D00A14A0D00794A0D00B14E0D00A1
:1053AC00494A0D00654A0D00574A0D00734A0D001D
:1053BC00374A0D003B4A0D000000000000000000C1
:1053CC00354B0D009D4B0D00734B0D00B14E0D0078
:1053DC00654B0D00374B0D00474B0D00974B0D00E7
:1053EC00574B0D00314B0D00000000000000000079
:1053FC00514C0D00414C0D00434C0D0025592D25F1
:10540C006D2D25645425483A254D3A2553257A00AF
:10541C0061736374696D6500617070000000000059
:10542C00000000008F500D0085500D007B500D00CA
:10543C0071500D0065500D0059500D0099460D002E
:10544C00A1460D004D500D0045500D003B500D0078
:10545C0031500D00D1460D0000000000F5410D004B
:10546C00B1470D00A5490D00714E0D008D4E0D007C
:10547C00A14E0D00CD4F0D00F54F0D0099500D00B4
:04548C00000000001C
:045490000000000018
:105494001C540D00C4E503200000000000000000BF
:1054A40000000000000000000000000000000000F8
:1054B40000000000000000000000000000000000E8
:1054C40000000000000000000000000000000000D8
:1054D40000000000000000000000000000000000C8
:1054E40000000000000000000000000000000000B8
:0854F4000000000000000000B0
:1054FC00FFFFFFFF00000102030405060708090A6D
:10550C000B0C0D0E0F101112131415161718191A67
:08551C001B1C1D1E1F202800AE
:04552400785634126F
:04000003D000401CCD
:00000001FF
