:02000002D0002C
:1040000000400D00C4540D00000006000C00050126
:084010000401BD0B00000000DB
:0440180050520D00F5
:10401C0009480A49884208B505D0094A824202D0AB
:10402C00121A01F0CDF80748074A0021121A01F0C4
:10403C00D5F8014808BD00BFCCE5032034540D0071
:10404C0034E6032034E60320F0E7032070B5074E76
:10405C00074C00F09BFEA41BA4080025A54200D130
:10406C0070BD56F8043B98470135F7E70C540D002A
:10407C0030540D0000F07CB808B500F043F8BDE8F2
:10408C00084000F045BE00F0A1BA00F0A7BA0078D5
:10409C00B0FA80F04009704701230370704710B5E7
:1040AC000446006808B100F099FA204610BD0EB421
:1040BC0003B503AB012153F8042B019300F017FF58
:1040CC0002B05DF804EB03B07047000013B50B4C65
:1040DC002178BFF35B8F11F001010BD120460191C8
:1040EC00FFF7D5FF019928B1054800F04BFB20469E
:1040FC00FFF7D2FF024802B010BD00BF38E6032024
:10410C003CE603201FB500F037FD03681B69984798
:10411C0038B300F031FD03685B699847C4B200F016
:10412C002BFD22461049FFF7C2FF002105208DF818
:10413C000C4001F014F8FFF7C9FF0023009302AA0A
:10414C00012303A900F0ACFB0121052001F007F8C5
:10415C003F2C06D100F010FD9DF808200349FFF715
:10416C00A6FF04B010BD00BF64520D006E520D00CE
:10417C0008B50121052000F0E1FFFFF7A7FF05229C
:10418C00002100F009FBFFF7A1FF0D4A012100F00F
:10419C0055FBFFF79BFF012100F014FBFFF796FF87
:1041AC00002100F022FB00F0E7FC4FF4165100F068
:1041BC00D7FC00F0E1FCBDE80840024900F066BE07
:1041CC0040420F0079520D0038B50A4C0A4BA360DF
:1041DC00002503202560A580A57100F0D3F90749BF
:1041EC00074A204600F0D4FF29460120BDE838409C
:1041FC0000F0D0B944E603200000FFFFAB400D00F7
:10420C0034E6032008B5024B1B681B68019308BDFC
:10421C004C02030008B5024B1B685B68019308BD98
:10422C004C02030008B5024B1B681B69019308BDC7
:10423C004C02030008B5024B1B685B69019308BD77
:10424C004C02030008B5024B1B689B69019308BD27
:10425C004C02030008B5024B1B68DB69019308BDD7
:10426C004C02030008B5024B1B681B6A019308BD86
:10427C004C02030008B5024B1B681B6A019308BD76
:10428C002802030008B5024B1B685B6A019308BD4A
:10429C002802030008B5024B1B689B6A019308BDFA
:1042AC002802030008B5024B1B68DB6A019308BDAA
:1042BC002802030008B5024B1B681B6B019308BD59
:1042CC002802030008B5024B1B685B6B019308BD09
:1042DC002802030008B5024B1B681B6C019308BD38
:1042EC002802030008B5024B1B681B68019308BD2C
:1042FC003C02030008B5024B1B68DB68019308BD48
:10430C003C02030008B5024B1B681B69019308BDF6
:10431C003C02030008B5024B1B685B69019308BDA6
:10432C003C02030008B5024B1B689B69019308BD56
:10433C003C02030008B5024B1B68DB69019308BD06
:10434C003C02030008B5024B1B681B6A019308BDB5
:10435C003C02030008B5024B1B689B6A019308BD25
:10436C003C02030008B5024B1B685B69019308BD56
:10437C006402030008B5024B1B685B6C019308BD1B
:10438C004802030008B5024B1B689B6C019308BDE7
:10439C004802030008B5024B1B685B68019308BD1B
:1043AC001802030008B5024B1B685B69019308BD3A
:1043BC001802030008B5024B1B689B68019308BDEB
:1043CC003002030008B5024B1B68DB68019308BD83
:1043DC003002030008B5024B1B681B69019308BD32
:1043EC003002030008B5024B1B68DB69019308BD62
:1043FC003002030008B5024B1B681B6A019308BD11
:10440C003002030008B5024B1B685B6A019308BDC0
:10441C003002030008B5024B1B689B6A019308BD70
:10442C003002030008B5024B1B68DB6A019308BD20
:10443C003002030008B5024B1B689B6B019308BD4F
:10444C003002030008B5024B1B681B6C019308BDBE
:10445C003002030008B5024B1B685B6C019308BD6E
:10446C003002030008B5024B1B689B68019308BD22
:10447C002C02030008B5024B1B68DB68019308BDD6
:10448C002C02030008B5024B1B681B69019308BD85
:10449C002C02030008B5024B1B689B68019308BDF6
:1044AC006802030008B5024B1B68DB68019308BD6A
:1044BC006802030008B5024B1B68DB6B019308BD57
:1044CC004402030008B5024B1B685B68019308BDEE
:1044DC004002030008B5024B1B689B68019308BDA2
:1044EC004002030008B5024B1B68DB68019308BD52
:1044FC004002030008B5024B1B681B69019308BD01
:10450C004002030008B5024B1B685B69019308BDB0
:10451C004002030008B5024B1B689B69019308BD60
:10452C004002030008B5024B1B68DB69019308BD10
:10453C004002030008B5024B1B681B6A019308BDBF
:10454C004002030008B5024B1B681B6B019308BDAE
:10455C004002030008B5024B1B685B6B019308BD5E
:10456C004002030008B5024B1B681B6C019308BD8D
:10457C004002030008B5024B1B685B6C019308BD3D
:10458C004002030008B5024B1B685B68019308BD31
:10459C002002030008B5024B1B68DB6A019308BDBF
:1045AC002002030008B5034B1B68D3F88830019335
:1045BC0008BD00002002030008B5034B1B68D3F8AC
:1045CC009430019308BD00002002030008B5024B93
:1045DC001B681B68019308BD1C02030008B5024B45
:1045EC001B685B68019308BD1C02030008B5024BF5
:1045FC001B685B6A019308BD1C02030008B5024BE3
:10460C001B685B6C019308BD1C020300002340680F
:10461C001A46FFF757BF406800220221FFF762BF1E
:10462C00002240681146FFF755BF00224068114632
:10463C00FFF760BF002340681A461946FFF762BFB8
:10464C00002340681A461946FFF764BF40680021F2
:10465C00FFF788BF40680021FFF78CBF406800223D
:10466C0081F00101FFF75EBF40680022FFF76ABFCF
:10467C00002240681146FFF76DBF002240681146CA
:10468C00FFF758BF2DE9F043002495B016460D46B0
:10469C00074600F0D5FA214618220EA8009400F027
:1046AC009DFD4023CDE90C3421466B460CAA3046C7
:1046BC00FFF7F8FE044600284CD102460121686839
:1046CC00FFF718FF0221804622466868FFF712FFA9
:1046DC00009E81462146002E3CD000293AD17368B9
:1046EC00022B03D00A2B11D0F669F4E7B8F1000FB6
:1046FC000AD0716906A8043107AD00F0CFFA0FCDCE
:10470C003C1D0FC42B6823704146EDE7B9F1000F37
:10471C0001D14946E8E77469102201A800F05EFD5A
:10472C0006238DF8143001AD04F108031834186811
:10473C0059682A4603C20833A3421546F7D101A98A
:10474C0006A807AD00F08AFA0FCD3C1D0FC42B68EC
:10475C002370DEE70098FFF79DFE384615B0BDE8E4
:10476C00F0830000024B034A1A6000225A60704723
:10477C0050E6032098520D000021FFF763BE002184
:10478C00FFF768BE10B5044608462170FFF72AFEF5
:10479C0000236360204610BD13B504460078CDE9B4
:1047AC000021FFF7E9FFDDE90021034640B920783D
:1047BC00FFF738FE207802B0BDE81040FFF7DFBFEE
:1047CC0002B010BD13B5044600780191FFF7D4FF79
:1047DC00019940B92078FFF7EDFD207802B0BDE8D3
:1047EC001040FFF7CCBF02B010BD13B504460078E3
:1047FC000191FFF7C1FF019940B92078FFF7E2FD65
:10480C00207802B0BDE81040FFF7B9BF02B010BD70
:10481C00400830B51860002418688842E5B206D903
:10482C000134082C02D040081860F5E70725024B2C
:10483C005B5D137030BD00BFCC520D002DE9F04113
:10484C0088B000230446007802930E461746FFF703
:10485C0093FF054600BB94F800800146142203A880
:10486C0000F0BCFC0B232A4603A94046ADF80C30E3
:10487C00FFF7C8FD04988DF8075002AB0DF1070245
:10488C0007FB06F1FFF7C4FF20789DF80710FFF730
:10489C00A1FD2078FFF773FF029808B0BDE8F08106
:1048AC0030B587B004460A9D00950078FFF7B2FD3D
:1048BC003DB9207802A9FFF7BDFD9DF81430DB0748
:1048CC00F7D407B030BD002240681146FFF712BE86
:1048DC00002240681146FFF72DBE002240681146A9
:1048EC00FFF738BE40680022FFF72CBE406800225C
:1048FC0081F00101FFF716BE002340681A461946E5
:10490C00FFF708BE002340681A461946FFF7FABDA8
:10491C00002240681146FFF7DDBD406800220221ED
:10492C00FFF7E0BD002340681A46FFF7CBBD00003F
:10493C00024B04225A60024A1A60704758E6032060
:10494C00DC520D007047F8B5064615460C468F181C
:10495C00BC4206D0336814F8011B9B68304698475C
:10496C00F6E72846F8BD007C0022FFF783BC007CEC
:10497C000021FFF787BC007C0021FFF78BBC007C7B
:10498C000021FFF78FBC007C0021FFF793BC10B512
:10499C001421044600F001FC204610BD10B54FF464
:1049AC007A73044608460021C4E90113034B2360C3
:1049BC0020741146FFF78EFC204610BD18530D00D5
:1049CC0070474174704708B5007CFFF7C3FC20EAC0
:1049DC00E07008BD08B5007CFFF794FC20EAE0709D
:1049EC0008BD08B5007CFFF79DFC40EAE07008BDEF
:1049FC0008B5007CFFF78EFC40EAE07008BD007C37
:104A0C00FFF798BC37B5457C04462DB1207C03B02C
:104A1C00BDE83040FFF76EBC007C0191FFF79AFCBB
:104A2C0000280199F2DC284603B030BD10B51421E2
:104A3C00044600F0B2FB204610BD000010B54FF04C
:104A4C00000C0446084611464FF47A72C4E901C2C0
:104A5C00044A22600122207462741A46FFF742FC59
:104A6C00204610BD40530D0013B50E4C2178BFF3FA
:104A7C005B8F11F0010112D120460191FFF707FB6A
:104A8C00019960B1084A094B0948FFF7D7FF204646
:104A9C00FFF702FB074A0849054800F079FB044878
:104AAC0002B010BD60E6032064E60320E8E60320B4
:104ABC006CE7032034E60320CD490D0041747047A8
:104ACC00704708B50021007CFFF7BCFB40EAE070A2
:104ADC0008BD08B50121007CFFF7B4FB40EAE0708B
:104AEC0008BD08B5007CFFF7A5FB20EAE07008BD07
:104AFC0008B5007CFFF796FB20EAE07008BD13B503
:104B0C000446007C0191FFF795FB0028019901DC1C
:104B1C00607C20B1207CFFF79DFB20EAE07002B0A6
:104B2C0010BD007CFFF79EBB10B51421044600F0AD
:104B3C0034FB204610BD000010B54FF47A730446C8
:104B4C0008460021C4E90113044B2360012320749F
:104B5C0063741146FFF756FB204610BD70530D00D1
:104B6C00007C0022FFF756BB10B51422044600212E
:104B7C0000F034FB204610BD10B5104C88B003A8D3
:104B8C00FFF7F2FF2178BFF35B8F11F0010111D118
:104B9C0020460191FFF77BFA019958B103AA084806
:104BAC00FFF7CAFF2046FFF777FA064A0649044882
:104BBC0000F0EEFA024808B010BD00BF80E70320F9
:104BCC0084E7032034E60320CD4A0D00704710B56E
:104BDC001821044600F0E1FA204610BDF0B5037D23
:104BEC00062B8DB00E4600F104074FF0000412D0D6
:104BFC0000F1080515F8011D0A22304600F059F99C
:104C0C00AF42044419D0002CF4D02E21304600F0D1
:104C1C0041F90444EEE72F236A4639460A208DF801
:104C2C000040FFF79FFB684600F004FB3368024628
:104C3C00DB68694630469847044620460DB0F0BD07
:104C4C0010B5054B0446112240F8043B002100F03E
:104C5C00C5FA204610BD00BFA0530D000346074AFD
:104C6C0010B543F8042B01F1100251F8044B43F832
:104C7C00044B9142F9D10A781A7010BDA0530D0063
:104C8C0010B59DF8084044EA032343EA024242EA85
:104C9C00016104234160037510BD000013B5054B81
:104CAC000360CB7800938B784A780978FFF7E8FF9C
:104CBC0002B010BDA0530D0010B58368044613B1AB
:104CCC00032201469847204610BD0000014B186096
:104CDC00704700BFD0E5032008B50B4B43B1FFF77D
:104CEC004BFF03681B699847002801DDAFF3008078
:104CFC00064B43B1FFF7B8FE03681B6998470028C1
:104D0C0001DDAFF3008008BD0000000000000000D2
:104D1C0008B5FFF7E1FFFFF745FB014B186008BD35
:104D2C00ECE703200248034A0349121A00F048BA80
:104D3C0000F4032004F4032030540D0007B50023C5
:104D4C0000931A466FF07701FFF736FC03B05DF85D
:104D5C0004FB000007B543880A2B08D0502B0BD15D
:104D6C00094B1B684BB103B05DF804EB1847FFF718
:104D7C00E5FF03B05DF804FB002300931A466FF0C7
:104D8C007701FFF719FCF4E79CE7032038B5124CC8
:104D9C001248134D0021FFF731FC2368AB42114B35
:104DAC000CBF012200221A7002D0FFF7BBFF256056
:104DBC00FFF7F0FA044600F019FA0B4B13B120463A
:104DCC00AFF3008000210848FFF774FBBDE83840C2
:104DDC0006480021FFF7E6BB00F40320D94C0D0078
:104DEC001E1C279A98E7032000000000614D0D005F
:104DFC0010B50446FFF760FF204610BD0348044A77
:104E0C0004490023836000F0C3B900BFA0E703206E
:104E1C0034E60320FD4D0D00024B1A68024B1A605C
:104E2C00704700BFCCE50320B0E70320014B024ADA
:104E3C001A607047B4E70320C8530D00F8B5064656
:104E4C000D468F180024BD420CD0336815F8011B99
:104E5C009B6830469847031E01DB1C44F3E7002C8B
:104E6C0008BF1C462046F8BD13B50446084659B188
:104E7C00019100F0DFF923680199DB6802462046B6
:104E8C0002B0BDE81040184702B010BD08B5FFF7DE
:104E9C00EBFF08BD03689B68184738B50D21054624
:104EAC00FFF7F8FF0A2104462846FFF7F3FF2044DA
:104EBC0038BD30B58BB000238DF82430012A98BF53
:104ECC000A2209AC0D46B1FBF2F101FB125303F0BF
:104EDC00FF03092B94BF30333733DBB2AA4204F8FB
:104EEC00013DEFD92146FFF7BFFF0BB030BD2DE9D7
:104EFC00F04186B000AF05460E46381D142114460D
:104F0C003B60FFF773FB13280ED8391D2846FFF7BB
:104F1C00ABFF04461EB12846FFF7BFFF04442046F2
:104F2C001837BD46BDE8F08100F1080323F00703F4
:104F3C00E846ADEB030D2246411C3B686846FFF783
:104F4C0055FB69462846FFF78FFF0446C546E1E747
:104F5C0010B50446006808B1FFF714FA204610BDDE
:104F6C0010B5064C002320462360FFF703FA2046B9
:104F7C00034A0449BDE8104000F00AB9B8E7032021
:104F8C0034E603205D4F0D0010B5094B094C02228D
:104F9C0000201A60084B2060A080A071A360FFF76E
:104FAC00F1FA2046054A0649BDE8104000F0F0B879
:104FBC00C8E70320BCE703200000FFFF34E6032012
:104FCC00AB400D00002240681146FFF7B3BA002237
:104FDC0040681146FFF7BEBA40680022FFF7B2BA2C
:104FEC004068002281F00101FFF79CBA0023406861
:104FFC001A461946FFF78EBA002340681A4619461E
:10500C00FFF780BA002240681146FFF773BA0022FE
:10501C0040681146FFF75EBA406800220221FFF794
:10502C0061BA002340681A46FFF74CBA024B0322C0
:10503C005A60024A1A607047CCE70320D4530D0023
:10504C0038B5002320254380142304460380856053
:10505C0005610649284600F0A2F80449606028461C
:10506C0000F09DF8E060204638BD00BF08540D00EC
:10507C0030B50F4D2978BFF35B8F11F0010487B069
:10508C0013D12846FFF703F878B101A8FFF7D8FF32
:10509C0001AA21460748FFF781FC2846FEF7FCFFD2
:1050AC00054A0649034800F073F8024807B030BDC2
:1050BC00D4E70320D8E7032034E6032051490D0040
:1050CC00232813B502D9002002B010BDA0F10B03A8
:1050DC00022B1AD8174C2178BFF35B8F11F001010A
:1050EC000BD120460191FEF7D2FF019928B112484D
:1050FC00FFF748FB2046FEF7CFFF0F4B1878FFF762
:10510C0079F90028DFD10120DEE7012809D8FFF763
:10511C00AFFF0021007CFFF7D5F880F00100C0B292
:10512C00D2E709380128EED8FFF79EFC007CFFF788
:10513C0009F9F2E738E603203CE60320232838B5CA
:10514C0004460D460AD8FF2908D0FFF7B9FF28B14D
:10515C0029462046BDE83840FFF784B938BD38B53C
:10516C0004460D46FFF786F9FF2810D0062804D810
:10517C004D2323FA00F0C30709D42046FFF7A0FF04
:10518C0028B129462046BDE83840FFF77BB938BD29
:10519C000B460146184600F005B8FEF776BFFEF741
:1051AC0072BF000010B5054C13462CB10A460146DF
:1051BC000220AFF3008010BD2046FCE70000000089
:1051CC000A44914200F1FF3300D1704710B511F839
:1051DC00014B03F8014F9142F9D110BD0244034633
:1051EC00934200D1704703F8011BF9E738B50D4B1A
:1051FC001D68AB6B04467BB91820FFF7E7F90A4A28
:10520C000A4BA863C0E90023094B83600B238381FD
:10521C0001220023C0E90423AB6B00221C615A61FC
:10522C0038BD00BFD0E503200E33CDAB34126DE694
:10523C00ECDE0500034613F8012B002AFBD1181AEB
:10524C00013870471D400D0059400D0081400D0084
:10525C0085400D0000000000696E7075743A2025C1
:10526C006400427574746F6E3A2025640053657443
:10527C002075702053504920636F6E6E656374699E
:10528C006F6E0000000000000000000019460D00C9
:10529C0023460D002D460D0037460D0041460D00EE
:1052AC004D460D0059460D0061460D0069460D0036
:1052BC0075460D007D460D0087460D0091460D008C
:1052CC0000081018202830380000000000000000F2
:1052DC0031490D0027490D001D490D00D3480D0023
:1052EC0011490D0005490D0059460D0061460D0090
:1052FC00F9480D00F1480D00E7480D00DD480D00A0
:10530C0091460D00000000000000000051490D0006
:10531C009B490D0073490D0053490D007B490D004D
:10532C0083490D008B490D0093490D0000000000CE
:10533C0000000000CD490D00394A0D00114A0D0046
:10534C00494E0D00E1490D00FD490D00EF490D00DE
:10535C000B4A0D00CF490D00D3490D000000000091
:10536C0000000000CD4A0D00354B0D000B4B0D001D
:10537C00494E0D00FD4A0D00CF4A0D00DF4A0D00CD
:10538C002F4B0D00EF4A0D00C94A0D000000000024
:10539C0000000000E94B0D00D94B0D00DB4B0D005C
:1053AC0025592D256D2D25645425483A254D3A2532
:1053BC0053257A0061736374696D650061707000C8
:1053CC0000000000000000002F500D0025500D00C3
:1053DC001B500D0011500D0005500D00F94F0D0024
:1053EC0059460D0061460D00ED4F0D00E54F0D00C7
:1053FC00DB4F0D00D14F0D0091460D000000000059
:10540C00D5410D0071470D003D490D00094E0D00B1
:10541C00254E0D00394E0D006D4F0D00954F0D00B2
:04542C0039500D00E6
:045430000000000078
:10543400C0530D00D4E5032000000000000000006C
:105444000000000000000000000000000000000058
:105454000000000000000000000000000000000048
:105464000000000000000000000000000000000038
:105474000000000000000000000000000000000028
:105484000000000000000000000000000000000018
:08549400000000000000000010
:10549C00FFFFFFFF00000102030405060708090ACD
:1054AC000B0C0D0E0F101112131415161718191AC8
:0854BC001B1C1D1E1F2028000F
:0454C40078563412D0
:04000003D000401CCD
:00000001FF
