:02000002D0002C
:1040000000400D00F4540D00000006000C000501F6
:084010000401BD0B00000000DB
:0440180074520D00D1
:10401C0009480A49884208B505D0094A824202D0AB
:10402C00121A01F0DFF80748074A0021121A01F0B2
:10403C00E7F8014808BD00BFCCE5032064540D002F
:10404C0034E6032034E60320F0E7032070B5074E76
:10405C00074C00F0ADFEA41BA4080025A54200D11E
:10406C0070BD56F8043B98470135F7E730540D0006
:10407C0054540D0000F082B808B500F043F8BDE8C8
:10408C00084000F057BE00F0AFBA00F0B5BA0078A7
:10409C00B0FA80F04009704701230370704710B5E7
:1040AC000446006808B100F0A7FA204610BD0EB413
:1040BC0003B503AB012153F8042B019300F029FF46
:1040CC0002B05DF804EB03B07047000013B50B4C65
:1040DC002178BFF35B8F11F001010BD120460191C8
:1040EC00FFF7D5FF019928B1054800F059FB204690
:1040FC00FFF7D2FF024802B010BD00BF38E6032024
:10410C003CE603201FB500F049FD03681B69984786
:10411C0068B300F043FD03685B699847C4B200F0D4
:10412C003DFD14492246FFF7C2FF00F037FD00F0B9
:10413C0029FD0028F9D0002105208DF80C4001F054
:10414C0020F8FFF7C3FF0023009302AA012303A961
:10415C0000F0B4FB0121052001F013F83F2C06D12F
:10416C0000F01CFD9DF808200349FFF7A0FF04B0E8
:10417C0010BD00BF88520D0092520D0008B50121F0
:10418C00052000F0EDFFFFF7A1FF0522002100F054
:10419C0011FBFFF79BFF0D4A012100F05DFBFFF7C0
:1041AC0095FF012100F01CFBFFF790FF002100F0B0
:1041BC002AFB00F0F3FC4FF4165100F0DFFC00F08A
:1041CC00EDFCBDE80840024900F072BE40420F0011
:1041DC009D520D0038B50A4C0A4BA36000250320F4
:1041EC002560A580A57100F0DBF90749074A204638
:1041FC0000F0E0FF29460120BDE8384000F0D8B9B6
:10420C0044E603200000FFFFAB400D0034E6032022
:10421C0008B5024B1B681B68019308BD4C020300D8
:10422C0008B5024B1B685B68019308BD4C02030088
:10423C0008B5024B1B681B69019308BD4C020300B7
:10424C0008B5024B1B685B69019308BD4C02030067
:10425C0008B5024B1B689B69019308BD4C02030017
:10426C0008B5024B1B68DB69019308BD4C020300C7
:10427C0008B5024B1B681B6A019308BD4C02030076
:10428C0008B5024B1B689B6A019308BD4C020300E6
:10429C0008B5024B1B681B6A019308BD280203007A
:1042AC0008B5024B1B685B6A019308BD280203002A
:1042BC0008B5024B1B689B6A019308BD28020300DA
:1042CC0008B5024B1B68DB6A019308BD280203008A
:1042DC0008B5024B1B681B6B019308BD2802030039
:1042EC0008B5024B1B685B6B019308BD28020300E9
:1042FC0008B5024B1B681B6C019308BD2802030018
:10430C0008B5024B1B681B68019308BD3C020300F7
:10431C0008B5024B1B68DB68019308BD3C02030027
:10432C0008B5024B1B681B69019308BD3C020300D6
:10433C0008B5024B1B685B69019308BD3C02030086
:10434C0008B5024B1B689B69019308BD3C02030036
:10435C0008B5024B1B68DB69019308BD3C020300E6
:10436C0008B5024B1B681B6A019308BD3C02030095
:10437C0008B5024B1B689B6A019308BD3C02030005
:10438C0008B5024B1B685B69019308BD640203000E
:10439C0008B5024B1B685B6C019308BD4802030017
:1043AC0008B5024B1B689B6C019308BD48020300C7
:1043BC0008B5024B1B685B68019308BD180203002B
:1043CC0008B5024B1B685B69019308BD180203001A
:1043DC0008B5024B1B689B68019308BD30020300B3
:1043EC0008B5024B1B68DB68019308BD3002030063
:1043FC0008B5024B1B681B69019308BD3002030012
:10440C0008B5024B1B68DB69019308BD3002030041
:10441C0008B5024B1B681B6A019308BD30020300F0
:10442C0008B5024B1B685B6A019308BD30020300A0
:10443C0008B5024B1B689B6A019308BD3002030050
:10444C0008B5024B1B68DB6A019308BD3002030000
:10445C0008B5024B1B689B6B019308BD300203002F
:10446C0008B5024B1B681B6C019308BD300203009E
:10447C0008B5024B1B685B6C019308BD300203004E
:10448C0008B5024B1B689B68019308BD2C02030006
:10449C0008B5024B1B68DB68019308BD2C020300B6
:1044AC0008B5024B1B681B69019308BD2C02030065
:1044BC0008B5024B1B689B68019308BD680203009A
:1044CC0008B5024B1B68DB68019308BD680203004A
:1044DC0008B5024B1B68DB6B019308BD440203005B
:1044EC0008B5024B1B685B68019308BD40020300D2
:1044FC0008B5024B1B689B68019308BD4002030082
:10450C0008B5024B1B68DB68019308BD4002030031
:10451C0008B5024B1B681B69019308BD40020300E0
:10452C0008B5024B1B685B69019308BD4002030090
:10453C0008B5024B1B689B69019308BD4002030040
:10454C0008B5024B1B68DB69019308BD40020300F0
:10455C0008B5024B1B681B6A019308BD400203009F
:10456C0008B5024B1B681B6B019308BD400203008E
:10457C0008B5024B1B685B6B019308BD400203003E
:10458C0008B5024B1B681B6C019308BD400203006D
:10459C0008B5024B1B685B6C019308BD400203001D
:1045AC0008B5024B1B685B68019308BD2002030031
:1045BC0008B5024B1B68DB6A019308BD200203009F
:1045CC0008B5034B1B68D3F88830019308BD000075
:1045DC002002030008B5034B1B68D3F894300193F9
:1045EC0008BD00002002030008B5024B1B681B68C5
:1045FC00019308BD1C02030008B5024B1B685B68E5
:10460C00019308BD1C02030008B5024B1B685B6AD2
:10461C00019308BD1C02030008B5024B1B685B6CC0
:10462C00019308BD1C020300002340681A46FFF7E3
:10463C0057BF406800220221FFF762BF002240688A
:10464C001146FFF755BF002240681146FFF760BFC7
:10465C00002340681A461946FFF762BF00234068E2
:10466C001A461946FFF764BF40680021FFF788BF60
:10467C0040680021FFF78CBF4068002281F00101E7
:10468C00FFF75EBF40680022FFF76ABF0022406858
:10469C001146FFF76DBF002240681146FFF758BF67
:1046AC002DE9F043002495B016460D46074600F060
:1046BC00D9FA214618220EA8009400F0A1FD40233F
:1046CC00CDE90C3421466B460CAA3046FFF7F8FEB8
:1046DC00044600284CD1024601216868FFF718FFF8
:1046EC000221804622466868FFF712FF009E814631
:1046FC002146002E3CD000293AD17368022B03D0FE
:10470C000A2B11D0F669F4E7B8F1000F0AD07169E1
:10471C0006A8043107AD00F0D3FA0FCD3C1D0FC431
:10472C002B6823704146EDE7B9F1000F01D14946E2
:10473C00E8E77469102201A800F062FD06238DF8E9
:10474C00143001AD04F108031834186859682A466E
:10475C0003C20833A3421546F7D101A906A807AD39
:10476C0000F08EFA0FCD3C1D0FC42B682370DEE7D2
:10477C000098FFF79DFE384615B0BDE8F0830000A9
:10478C00024B034A1A6000225A60704750E603201D
:10479C00BC520D000021FFF763BE0021FFF768BE7D
:1047AC0010B5044608462170FFF72AFE002363600B
:1047BC00204610BD13B504460078CDE90021FFF763
:1047CC00E9FFDDE90021034640B92078FFF738FE08
:1047DC00207802B0BDE81040FFF7DFBF02B010BD7B
:1047EC0013B5044600780191FFF7D4FF019940B945
:1047FC002078FFF7EDFD207802B0BDE81040FFF700
:10480C00CCBF02B010BD13B5044600780191FFF780
:10481C00C1FF019940B92078FFF7E2FD207802B082
:10482C00BDE81040FFF7B9BF02B010BD400830B56D
:10483C001860002418688842E5B206D90134082CA7
:10484C0002D040081860F5E70725024B5B5D13703A
:10485C0030BD00BFF0520D002DE9F04188B00023AF
:10486C000446007802930E461746FFF793FF054661
:10487C0000BB94F800800146142203A800F0C0FC91
:10488C000B232A4603A94046ADF80C30FFF7C8FDB0
:10489C0004988DF8075002AB0DF1070207FB06F1E7
:1048AC00FFF7C4FF20789DF80710FFF7A1FD2078D3
:1048BC00FFF773FF029808B0BDE8F08130B587B000
:1048CC0004460A9D00950078FFF7B2FD3DB92078AB
:1048DC0002A9FFF7BDFD9DF81430DB07F7D407B034
:1048EC0030BD002240681146FFF712BE002240681E
:1048FC001146FFF72DBE002240681146FFF738BE67
:10490C0040680022FFF72CBE4068002281F00101B4
:10491C00FFF716BE002340681A461946FFF708BE7B
:10492C00002340681A461946FFF7FABD002240687A
:10493C001146FFF7DDBD406800220221FFF7E0BD04
:10494C00002340681A46FFF7CBBD0000024B04223F
:10495C005A60024A1A60704758E6032000530D0053
:10496C007047F8B5064615460C468F18BC4206D063
:10497C00336814F8011B9B6830469847F6E72846C5
:10498C00F8BD007C0022FFF783BC007C0021FFF700
:10499C0087BC007C0021FFF78BBC007C0021FFF75B
:1049AC008FBC007C0021FFF793BC10B5142104468A
:1049BC0000F005FC204610BD10B54FF47A73044688
:1049CC0008460021C4E90113034B236020741146EF
:1049DC00FFF78EFC204610BD3C530D007047417410
:1049EC00704708B5007CFFF7C3FC20EAE07008BDF7
:1049FC0008B5007CFFF794FC20EAE07008BD08B510
:104A0C00007CFFF79DFC40EAE07008BD08B5007C17
:104A1C00FFF78EFC40EAE07008BD007CFFF798BC05
:104A2C0037B5457C04462DB1207C03B0BDE8304041
:104A3C00FFF76EBC007C0191FFF79AFC00280199EE
:104A4C00F2DC284603B030BD10B51421044600F04A
:104A5C00B6FB204610BD000010B54FF0000C04460C
:104A6C00084611464FF47A72C4E901C2044A226026
:104A7C000122207462741A46FFF742FC204610BDD6
:104A8C0064530D0013B50E4C2178BFF35B8F11F0FE
:104A9C00010112D120460191FFF7F9FA019960B199
:104AAC00084A094B0948FFF7D7FF2046FFF7F4FAED
:104ABC00074A0849054800F07DFB044802B010BDC8
:104ACC0060E6032064E60320E8E603206CE703209D
:104ADC0034E60320E9490D0041747047704708B56E
:104AEC000021007CFFF7B4FB40EAE07008BD08B57C
:104AFC000121007CFFF7ACFB40EAE07008BD08B573
:104B0C00007CFFF79DFB20EAE07008BD08B5007C37
:104B1C00FFF78EFB20EAE07008BD13B50446007C5D
:104B2C000191FFF78DFB0028019901DC607C20B11D
:104B3C00207CFFF795FB20EAE07002B010BD007CF2
:104B4C00FFF796BB10B51421044600F038FB204645
:104B5C0010BD000010B54FF47A73044608460021CE
:104B6C00C4E90113044B23600123207463741146C0
:104B7C00FFF74EFB204610BD94530D00007C002225
:104B8C00FFF74EBB007CFFF77BBB10B5142204462D
:104B9C00002100F035FB204610BD000010B5104C74
:104BAC0088B003A8FFF7F1FF2178BFF35B8F11F0FA
:104BBC00010111D120460191FFF769FA019958B111
:104BCC0003AA0848FFF7C6FF2046FFF765FA064A16
:104BDC000649044800F0EEFA024808B010BD00BFC8
:104BEC0080E7032084E7032034E60320E94A0D0024
:104BFC00704710B51821044600F0E1FA204610BDAC
:104C0C00F0B5037D062B8DB00E4600F104074FF076
:104C1C00000412D000F1080515F8011D0A223046D7
:104C2C0000F059F9AF42044419D0002CF4D02E21D5
:104C3C00304600F041F90444EEE72F236A4639462A
:104C4C000A208DF80040FFF79BFB684600F004FB40
:104C5C0033680246DB68694630469847044620466E
:104C6C000DB0F0BD10B5054B0446112240F8043BC5
:104C7C00002100F0C5FA204610BD00BFC4530D0042
:104C8C000346074A10B543F8042B01F1100251F802
:104C9C00044B43F8044B9142F9D10A781A7010BDB9
:104CAC00C4530D0010B59DF8084044EA032343EAB1
:104CBC00024242EA016104234160037510BD000009
:104CCC0013B5054B0360CB7800938B784A78097841
:104CDC00FFF7E8FF02B010BDC4530D0010B5836898
:104CEC00044613B1032201469847204610BD00002C
:104CFC00014B1860704700BFD0E5032008B50B4B83
:104D0C0043B1FFF74BFF03681B699847002801DD8F
:104D1C00AFF30080064B43B1FFF7B4FE03681B6989
:104D2C009847002801DDAFF3008008BD00000000AB
:104D3C000000000008B5FFF7E1FFFFF741FB014B56
:104D4C00186008BDECE703200248034A0349121A15
:104D5C0000F048BA00F4032004F4032060540D0062
:104D6C0007B5002300931A466FF07701FFF732FC6A
:104D7C0003B05DF804FB000007B543880A2B08D08C
:104D8C00502B0BD1094B1B684BB103B05DF804EBF6
:104D9C001847FFF7E5FF03B05DF804FB0023009311
:104DAC001A466FF07701FFF715FCF4E79CE7032038
:104DBC0038B5124C1248134D0021FFF72DFC236817
:104DCC00AB42114B0CBF012200221A7002D0FFF72C
:104DDC00BBFF2560FFF7ECFA044600F019FA0B4B09
:104DEC0013B12046AFF3008000210848FFF770FB99
:104DFC00BDE8384006480021FFF7E2BB00F4032071
:104E0C00FD4C0D001E1C279A98E7032000000000A3
:104E1C00854D0D0010B50446FFF760FF204610BD10
:104E2C000348044A04490023836000F0C3B900BF5F
:104E3C00A0E7032034E60320214E0D00024B1A6834
:104E4C00024B1A60704700BFCCE50320B0E703208B
:104E5C00014B024A1A607047B4E70320EC530D0073
:104E6C00F8B506460D468F180024BD420CD03368A9
:104E7C0015F8011B9B6830469847031E01DB1C4448
:104E8C00F3E7002C08BF1C462046F8BD13B50446BA
:104E9C00084659B1019100F0DFF923680199DB68EC
:104EAC000246204602B0BDE81040184702B010BDC3
:104EBC0008B5FFF7EBFF08BD03689B68184738B5CA
:104ECC000D210546FFF7F8FF0A2104462846FFF797
:104EDC00F3FF204438BD30B58BB000238DF824305F
:104EEC00012A98BF0A2209AC0D46B1FBF2F101FB75
:104EFC00125303F0FF03092B94BF30333733DBB26B
:104F0C00AA4204F8013DEFD92146FFF7BFFF0BB0D1
:104F1C0030BD2DE9F04186B000AF05460E46381D78
:104F2C00142114463B60FFF76FFB13280ED8391D74
:104F3C002846FFF7ABFF04461EB12846FFF7BFFF1C
:104F4C00044420461837BD46BDE8F08100F1080343
:104F5C0023F00703E846ADEB030D2246411C3B68EA
:104F6C006846FFF751FB69462846FFF78FFF04465A
:104F7C00C546E1E710B50446006808B1FFF710FA22
:104F8C00204610BD10B5064C002320462360FFF7C9
:104F9C00FFF92046034A0449BDE8104000F00AB965
:104FAC00B8E7032034E60320814F0D0010B5094B00
:104FBC00094C022200201A60084B2060A080A071CE
:104FCC00A360FFF7EDFA2046054A0649BDE81040FC
:104FDC0000F0F0B8C8E70320BCE703200000FFFF97
:104FEC0034E60320AB400D00002240681146FFF769
:104FFC00AFBA002240681146FFF7BABA40680022E7
:10500C00FFF7AEBA4068002281F00101FFF798BAB1
:10501C00002340681A461946FFF78ABA00234068F5
:10502C001A461946FFF77CBA002240681146FFF772
:10503C006FBA002240681146FFF75ABA4068002246
:10504C000221FFF75DBA002340681A46FFF748BA01
:10505C00024B03225A60024A1A607047CCE70320C5
:10506C00F8530D0038B50023202543801423044643
:10507C000380856005610649284600F0A2F80449C2
:10508C006060284600F09DF8E060204638BD00BF07
:10509C002C540D0030B50F4D2978BFF35B8F11F0F8
:1050AC00010487B013D12846FEF7F1FF78B101A8AF
:1050BC00FFF7D8FF01AA21460748FFF77DFC2846D9
:1050CC00FEF7EAFF054A0649034800F073F8024868
:1050DC0007B030BDD4E70320D8E7032034E6032023
:1050EC006D490D00232813B502D9002002B010BD64
:1050FC00A0F10B03022B1AD8174C2178BFF35B8F4E
:10510C0011F001010BD120460191FEF7C0FF01996E
:10511C0028B11248FFF744FB2046FEF7BDFF0F4BAA
:10512C001878FFF775F90028DFD10120DEE7012898
:10513C0009D8FFF7AFFF0021007CFFF7D1F880F012
:10514C000100C0B2D2E709380128EED8FFF79AFC6B
:10515C00007CFFF705F9F2E738E603203CE6032074
:10516C00232838B504460D460AD8FF2908D0FFF786
:10517C00B9FF28B129462046BDE83840FFF780B971
:10518C0038BD38B504460D46FFF782F9FF2810D01C
:10519C00062804D84D2323FA00F0C30709D420466F
:1051AC00FFF7A0FF28B129462046BDE83840FFF79D
:1051BC0077B938BD0B460146184600F005B8FEF726
:1051CC0064BFFEF760BF000010B5054C13462CB150
:1051DC000A4601460220AFF3008010BD2046FCE7D2
:1051EC00000000000A44914200F1FF3300D17047E7
:1051FC0010B511F8014B03F8014F9142F9D110BDD4
:10520C0002440346934200D1704703F8011BF9E7AF
:10521C0038B50D4B1D68AB6B04467BB91820FFF7F6
:10522C00E3F90A4A0A4BA863C0E90023094B8360DF
:10523C000B23838101220023C0E90423AB6B0022E2
:10524C001C615A6138BD00BFD0E503200E33CDABD5
:10525C0034126DE6ECDE0500034613F8012B002A30
:10526C00FBD1181A013870471D400D0059400D0034
:10527C0081400D0085400D0000000000696E7075C6
:10528C00743A20256400427574746F6E3A2025645C
:10529C00005365742075702053504920636F6E6EF7
:1052AC00656374696F6E0000000000000000000070
:1052BC0035460D003F460D0049460D0053460D0086
:1052CC005D460D0069460D0075460D007D460D00CE
:1052DC0085460D0091460D0099460D00A3460D0024
:1052EC00AD460D00000810182028303800000000D2
:1052FC00000000004D490D0043490D0039490D00D7
:10530C00EF480D002D490D0021490D0075460D008B
:10531C007D460D0015490D000D490D0003490D008A
:10532C00F9480D00AD460D00000000000000000023
:10533C006D490D00B7490D008F490D006F490D00E7
:10534C0097490D009F490D00A7490D00AF490D006D
:10535C000000000000000000E9490D00554A0D0056
:10536C002D4A0D006D4E0D00FD490D00194A0D0022
:10537C000B4A0D00274A0D00EB490D00EF490D00BB
:10538C000000000000000000E94A0D00514B0D0028
:10539C00274B0D006D4E0D00194B0D00EB4A0D0007
:1053AC00FB4A0D004B4B0D000B4B0D00E54A0D005D
:1053BC0000000000000000000D4C0D00FD4B0D0026
:1053CC00FF4B0D0025592D256D2D25645425483A8C
:1053DC00254D3A2553257A0061736374696D650018
:1053EC0061707000000000000000000053500D00C0
:1053FC0049500D003F500D0035500D0029500D0047
:10540C001D500D0075460D007D460D0011500D0010
:10541C0009500D00FF4F0D00F54F0D00AD460D006E
:10542C0000000000E1410D008D470D0059490D00B1
:10543C002D4E0D00494E0D005D4E0D00914F0D008F
:10544C00B94F0D005D500D00000000000000000081
:04545C00000000004C
:045460000000000048
:10546400E4530D00D4E50320000000000000000018
:105474000000000000000000000000000000000028
:105484000000000000000000000000000000000018
:105494000000000000000000000000000000000008
:1054A40000000000000000000000000000000000F8
:1054B40000000000000000000000000000000000E8
:0854C4000000000000000000E0
:1054CC00FFFFFFFF00000102030405060708090A9D
:1054DC000B0C0D0E0F101112131415161718191A98
:0854EC001B1C1D1E1F202800DF
:0454F40078563412A0
:04000003D000401CCD
:00000001FF
